{
  "_format": "hh3-artifact-1",
  "contractName": "Voting",
  "sourceName": "contracts/Voting.sol",
  "abi": [
    {
      "inputs": [],
      "stateMutability": "nonpayable",
      "type": "constructor"
    },
    {
      "anonymous": false,
      "inputs": [
        {
          "indexed": false,
          "internalType": "uint256",
          "name": "candidateId",
          "type": "uint256"
        },
        {
          "indexed": false,
          "internalType": "string",
          "name": "name",
          "type": "string"
        }
      ],
      "name": "CandidateAdded",
      "type": "event"
    },
    {
      "anonymous": false,
      "inputs": [
        {
          "indexed": true,
          "internalType": "address",
          "name": "voter",
          "type": "address"
        },
        {
          "indexed": false,
          "internalType": "uint256",
          "name": "candidateId",
          "type": "uint256"
        }
      ],
      "name": "VoteCasted",
      "type": "event"
    },
    {
      "anonymous": false,
      "inputs": [
        {
          "indexed": true,
          "internalType": "address",
          "name": "voter",
          "type": "address"
        }
      ],
      "name": "VoterVerified",
      "type": "event"
    },
    {
      "inputs": [
        {
          "internalType": "string",
          "name": "_name",
          "type": "string"
        }
      ],
      "name": "addCandidate",
      "outputs": [],
      "stateMutability": "nonpayable",
      "type": "function"
    },
    {
      "inputs": [],
      "name": "admin",
      "outputs": [
        {
          "internalType": "address",
          "name": "",
          "type": "address"
        }
      ],
      "stateMutability": "view",
      "type": "function"
    },
    {
      "inputs": [
        {
          "internalType": "uint256",
          "name": "",
          "type": "uint256"
        }
      ],
      "name": "candidates",
      "outputs": [
        {
          "internalType": "uint256",
          "name": "id",
          "type": "uint256"
        },
        {
          "internalType": "string",
          "name": "name",
          "type": "string"
        },
        {
          "internalType": "uint256",
          "name": "voteCount",
          "type": "uint256"
        }
      ],
      "stateMutability": "view",
      "type": "function"
    },
    {
      "inputs": [],
      "name": "getAllCandidates",
      "outputs": [
        {
          "components": [
            {
              "internalType": "uint256",
              "name": "id",
              "type": "uint256"
            },
            {
              "internalType": "string",
              "name": "name",
              "type": "string"
            },
            {
              "internalType": "uint256",
              "name": "voteCount",
              "type": "uint256"
            }
          ],
          "internalType": "struct Voting.Candidate[]",
          "name": "",
          "type": "tuple[]"
        }
      ],
      "stateMutability": "view",
      "type": "function"
    },
    {
      "inputs": [
        {
          "internalType": "address",
          "name": "",
          "type": "address"
        }
      ],
      "name": "hasVoted",
      "outputs": [
        {
          "internalType": "bool",
          "name": "",
          "type": "bool"
        }
      ],
      "stateMutability": "view",
      "type": "function"
    },
    {
      "inputs": [
        {
          "internalType": "address",
          "name": "",
          "type": "address"
        }
      ],
      "name": "isVerified",
      "outputs": [
        {
          "internalType": "bool",
          "name": "",
          "type": "bool"
        }
      ],
      "stateMutability": "view",
      "type": "function"
    },
    {
      "inputs": [
        {
          "internalType": "address",
          "name": "_voter",
          "type": "address"
        }
      ],
      "name": "verifyVoter",
      "outputs": [],
      "stateMutability": "nonpayable",
      "type": "function"
    },
    {
      "inputs": [
        {
          "internalType": "uint256",
          "name": "_candidateId",
          "type": "uint256"
        }
      ],
      "name": "vote",
      "outputs": [],
      "stateMutability": "nonpayable",
      "type": "function"
    }
  ],
  "bytecode": "0x608060405234801561001057600080fd5b50336000806101000a81548173ffffffffffffffffffffffffffffffffffffffff021916908373ffffffffffffffffffffffffffffffffffffffff1602179055506113a5806100606000396000f3fe608060405234801561001057600080fd5b50600436106100885760003560e01c80633477ee2e1161005b5780633477ee2e14610113578063462e91ec14610145578063b9209e3314610161578063f851a4401461019157610088565b80630121b93f1461008d57806309bd0950146100a957806309eef43e146100c55780632e6997fe146100f5575b600080fd5b6100a760048036038101906100a291906108de565b6101af565b005b6100c360048036038101906100be9190610969565b610368565b005b6100df60048036038101906100da9190610969565b610521565b6040516100ec91906109b1565b60405180910390f35b6100fd610541565b60405161010a9190610b7d565b60405180910390f35b61012d600480360381019061012891906108de565b610646565b60405161013c93929190610bf8565b60405180910390f35b61015f600480360381019061015a9190610d6b565b610708565b005b61017b60048036038101906101769190610969565b610850565b60405161018891906109b1565b60405180910390f35b610199610870565b6040516101a69190610dc3565b60405180910390f35b600360003373ffffffffffffffffffffffffffffffffffffffff1673ffffffffffffffffffffffffffffffffffffffff16815260200190815260200160002060009054906101000a900460ff161561023c576040517f08c379a000000000000000000000000000000000000000000000000000000000815260040161023390610e2a565b60405180910390fd5b6001805490508110610283576040517f08c379a000000000000000000000000000000000000000000000000000000000815260040161027a90610e96565b60405180910390fd5b6001600360003373ffffffffffffffffffffffffffffffffffffffff1673ffffffffffffffffffffffffffffffffffffffff16815260200190815260200160002060006101000a81548160ff02191690831515021790555060018082815481106102f0576102ef610eb6565b5b906000526020600020906003020160020160008282546103109190610f14565b925050819055503373ffffffffffffffffffffffffffffffffffffffff167fd0e6c39f2e086dc49f1524b47725526a56945cd1ff661f37976f1725a1e569868260405161035d9190610f48565b60405180910390a250565b60008054906101000a900473ffffffffffffffffffffffffffffffffffffffff1673ffffffffffffffffffffffffffffffffffffffff163373ffffffffffffffffffffffffffffffffffffffff16146103f6576040517f08c379a00000000000000000000000000000000000000000000000000000000081526004016103ed90610fd5565b60405180910390fd5b600260008273ffffffffffffffffffffffffffffffffffffffff1673ffffffffffffffffffffffffffffffffffffffff16815260200190815260200160002060009054906101000a900460ff1615610483576040517f08c379a000000000000000000000000000000000000000000000000000000000815260040161047a90611041565b60405180910390fd5b6001600260008373ffffffffffffffffffffffffffffffffffffffff1673ffffffffffffffffffffffffffffffffffffffff16815260200190815260200160002060006101000a81548160ff0219169083151502179055508073ffffffffffffffffffffffffffffffffffffffff167f73d35f4b5dc2339683083dec639ba37f0f5592fc26de0e0603ac5ba2412cd00460405160405180910390a250565b60036020528060005260406000206000915054906101000a900460ff1681565b60606001805480602002602001604051908101604052809291908181526020016000905b8282101561063d5783829060005260206000209060030201604051806060016040529081600082015481526020016001820180546105a290611090565b80601f01602080910402602001604051908101604052809291908181526020018280546105ce90611090565b801561061b5780601f106105f05761010080835404028352916020019161061b565b820191906000526020600020905b8154815290600101906020018083116105fe57829003601f168201915b5050505050815260200160028201548152505081526020019060010190610565565b50505050905090565b6001818154811061065657600080fd5b906000526020600020906003020160009150905080600001549080600101805461067f90611090565b80601f01602080910402602001604051908101604052809291908181526020018280546106ab90611090565b80156106f85780601f106106cd576101008083540402835291602001916106f8565b820191906000526020600020905b8154815290600101906020018083116106db57829003601f168201915b5050505050908060020154905083565b60008054906101000a900473ffffffffffffffffffffffffffffffffffffffff1673ffffffffffffffffffffffffffffffffffffffff163373ffffffffffffffffffffffffffffffffffffffff1614610796576040517f08c379a000000000000000000000000000000000000000000000000000000000815260040161078d90610fd5565b60405180910390fd5b600060018054905090506001604051806060016040528083815260200184815260200160008152509080600181540180825580915050600190039060005260206000209060030201600090919091909150600082015181600001556020820151816001019081610806919061126d565b506040820151816002015550507fe83b2a43e7e82d975c8a0a6d2f045153c869e111136a34d1889ab7b598e396a3818360405161084492919061133f565b60405180910390a15050565b60026020528060005260406000206000915054906101000a900460ff1681565b60008054906101000a900473ffffffffffffffffffffffffffffffffffffffff1681565b6000604051905090565b600080fd5b600080fd5b6000819050919050565b6108bb816108a8565b81146108c657600080fd5b50565b6000813590506108d8816108b2565b92915050565b6000602082840312156108f4576108f361089e565b5b6000610902848285016108c9565b91505092915050565b600073ffffffffffffffffffffffffffffffffffffffff82169050919050565b60006109368261090b565b9050919050565b6109468161092b565b811461095157600080fd5b50565b6000813590506109638161093d565b92915050565b60006020828403121561097f5761097e61089e565b5b600061098d84828501610954565b91505092915050565b60008115159050919050565b6109ab81610996565b82525050565b60006020820190506109c660008301846109a2565b92915050565b600081519050919050565b600082825260208201905092915050565b6000819050602082019050919050565b610a01816108a8565b82525050565b600081519050919050565b600082825260208201905092915050565b60005b83811015610a41578082015181840152602081019050610a26565b60008484015250505050565b6000601f19601f8301169050919050565b6000610a6982610a07565b610a738185610a12565b9350610a83818560208601610a23565b610a8c81610a4d565b840191505092915050565b6000606083016000830151610aaf60008601826109f8565b5060208301518482036020860152610ac78282610a5e565b9150506040830151610adc60408601826109f8565b508091505092915050565b6000610af38383610a97565b905092915050565b6000602082019050919050565b6000610b13826109cc565b610b1d81856109d7565b935083602082028501610b2f856109e8565b8060005b85811015610b6b5784840389528151610b4c8582610ae7565b9450610b5783610afb565b925060208a01995050600181019050610b33565b50829750879550505050505092915050565b60006020820190508181036000830152610b978184610b08565b905092915050565b610ba8816108a8565b82525050565b600082825260208201905092915050565b6000610bca82610a07565b610bd48185610bae565b9350610be4818560208601610a23565b610bed81610a4d565b840191505092915050565b6000606082019050610c0d6000830186610b9f565b8181036020830152610c1f8185610bbf565b9050610c2e6040830184610b9f565b949350505050565b600080fd5b600080fd5b7f4e487b7100000000000000000000000000000000000000000000000000000000600052604160045260246000fd5b610c7882610a4d565b810181811067ffffffffffffffff82111715610c9757610c96610c40565b5b80604052505050565b6000610caa610894565b9050610cb68282610c6f565b919050565b600067ffffffffffffffff821115610cd657610cd5610c40565b5b610cdf82610a4d565b9050602081019050919050565b82818337600083830152505050565b6000610d0e610d0984610cbb565b610ca0565b905082815260208101848484011115610d2a57610d29610c3b565b5b610d35848285610cec565b509392505050565b600082601f830112610d5257610d51610c36565b5b8135610d62848260208601610cfb565b91505092915050565b600060208284031215610d8157610d8061089e565b5b600082013567ffffffffffffffff811115610d9f57610d9e6108a3565b5b610dab84828501610d3d565b91505092915050565b610dbd8161092b565b82525050565b6000602082019050610dd86000830184610db4565b92915050565b7f596f75206861766520616c726561647920766f74656400000000000000000000600082015250565b6000610e14601683610bae565b9150610e1f82610dde565b602082019050919050565b60006020820190508181036000830152610e4381610e07565b9050919050565b7f496e76616c69642063616e646964617465204944000000000000000000000000600082015250565b6000610e80601483610bae565b9150610e8b82610e4a565b602082019050919050565b60006020820190508181036000830152610eaf81610e73565b9050919050565b7f4e487b7100000000000000000000000000000000000000000000000000000000600052603260045260246000fd5b7f4e487b7100000000000000000000000000000000000000000000000000000000600052601160045260246000fd5b6000610f1f826108a8565b9150610f2a836108a8565b9250828201905080821115610f4257610f41610ee5565b5b92915050565b6000602082019050610f5d6000830184610b9f565b92915050565b7f4f6e6c792061646d696e2063616e2063616c6c20746869732066756e6374696f60008201527f6e00000000000000000000000000000000000000000000000000000000000000602082015250565b6000610fbf602183610bae565b9150610fca82610f63565b604082019050919050565b60006020820190508181036000830152610fee81610fb2565b9050919050565b7f566f74657220697320616c726561647920766572696669656400000000000000600082015250565b600061102b601983610bae565b915061103682610ff5565b602082019050919050565b6000602082019050818103600083015261105a8161101e565b9050919050565b7f4e487b7100000000000000000000000000000000000000000000000000000000600052602260045260246000fd5b600060028204905060018216806110a857607f821691505b6020821081036110bb576110ba611061565b5b50919050565b60008190508160005260206000209050919050565b60006020601f8301049050919050565b600082821b905092915050565b6000600883026111237fffffffffffffffffffffffffffffffffffffffffffffffffffffffffffffffff826110e6565b61112d86836110e6565b95508019841693508086168417925050509392505050565b6000819050919050565b600061116a611165611160846108a8565b611145565b6108a8565b9050919050565b6000819050919050565b6111848361114f565b61119861119082611171565b8484546110f3565b825550505050565b600090565b6111ad6111a0565b6111b881848461117b565b505050565b5b818110156111dc576111d16000826111a5565b6001810190506111be565b5050565b601f821115611221576111f2816110c1565b6111fb846110d6565b8101602085101561120a578190505b61121e611216856110d6565b8301826111bd565b50505b505050565b600082821c905092915050565b600061124460001984600802611226565b1980831691505092915050565b600061125d8383611233565b9150826002028217905092915050565b61127682610a07565b67ffffffffffffffff81111561128f5761128e610c40565b5b6112998254611090565b6112a48282856111e0565b600060209050601f8311600181146112d757600084156112c5578287015190505b6112cf8582611251565b865550611337565b601f1984166112e5866110c1565b60005b8281101561130d578489015182556001820191506020850194506020810190506112e8565b8683101561132a5784890151611326601f891682611233565b8355505b6001600288020188555050505b505050505050565b60006040820190506113546000830185610b9f565b81810360208301526113668184610bbf565b9050939250505056fea264697066735822122025d18f4e7845b32f189d6c669aac55a5f20749b6e522ca98b0c601ec45d939f664736f6c63430008140033",
  "linkReferences": {},
  "deployedLinkReferences": {},
  "immutableReferences": {},
  "inputSourceName": "project/contracts/Voting.sol",
  "buildInfoId": "solc-0_8_20-a369c6701597ee43ca4bbc2637c74551d6b50573"
}